{
  "contractName": "Manageable",
  "abi": [
    {
      "constant": true,
      "inputs": [
        {
          "name": "",
          "type": "uint8"
        }
      ],
      "name": "subContracts",
      "outputs": [
        {
          "name": "",
          "type": "address"
        }
      ],
      "payable": false,
      "stateMutability": "view",
      "type": "function"
    },
    {
      "anonymous": false,
      "inputs": [
        {
          "indexed": false,
          "name": "name",
          "type": "uint8"
        },
        {
          "indexed": false,
          "name": "hash",
          "type": "address"
        }
      ],
      "name": "ProviderUpdated",
      "type": "event"
    },
    {
      "constant": false,
      "inputs": [
        {
          "name": "_id",
          "type": "uint8"
        },
        {
          "name": "_providerAddress",
          "type": "address"
        }
      ],
      "name": "setProvider",
      "outputs": [
        {
          "name": "success",
          "type": "bool"
        }
      ],
      "payable": false,
      "stateMutability": "nonpayable",
      "type": "function"
    }
  ],
  "bytecode": "0x608060405234801561001057600080fd5b506102ab806100206000396000f30060806040526004361061004c576000357c0100000000000000000000000000000000000000000000000000000000900463ffffffff168063aa0ec80e14610051578063f8d1f5f0146100c1575b600080fd5b34801561005d57600080fd5b5061007f600480360381019080803560ff169060200190929190505050610129565b604051808273ffffffffffffffffffffffffffffffffffffffff1673ffffffffffffffffffffffffffffffffffffffff16815260200191505060405180910390f35b3480156100cd57600080fd5b5061010f600480360381019080803560ff169060200190929190803573ffffffffffffffffffffffffffffffffffffffff16906020019092919050505061015c565b604051808215151515815260200191505060405180910390f35b60006020528060005260406000206000915054906101000a900473ffffffffffffffffffffffffffffffffffffffff1681565b60008015156001151514151561017157600080fd5b600073ffffffffffffffffffffffffffffffffffffffff168273ffffffffffffffffffffffffffffffffffffffff16141515156101ad57600080fd5b816000808560ff1660ff16815260200190815260200160002060006101000a81548173ffffffffffffffffffffffffffffffffffffffff021916908373ffffffffffffffffffffffffffffffffffffffff1602179055507f67443030ef5f09302512cf3635a6f83674265f49e44f5c30645f32e39e86e0888383604051808360ff1660ff1681526020018273ffffffffffffffffffffffffffffffffffffffff1673ffffffffffffffffffffffffffffffffffffffff1681526020019250505060405180910390a160019050929150505600a165627a7a72305820a4c8c9d704202ea5ef6239a6c9d45c655af25f3fe6b257da1f30a1426eae6ed50029",
  "source": "pragma solidity ^0.4.23;\n\ncontract Manageable {\n    event ProviderUpdated (uint8 name, address hash);\n\n    // This is used to hold the addresses of the providers\n    mapping (uint8 => address) public subContracts;\n    modifier onlyOwner() {\n        // Make sure that this function can't be used without being overridden\n        require(true == false);\n        _;\n    }\n\n    function setProvider(uint8 _id, address _providerAddress) public onlyOwner returns (bool success) {\n        require(_providerAddress != address(0));\n        subContracts[_id] = _providerAddress;\n        emit ProviderUpdated(_id, _providerAddress);\n\n        return true;\n    }\n}\n",
  "sourcePath": "/Users/Administrator/Projects/we-build/contracts/contracts/libs/Manageable.sol",
  "compiler": {
    "name": "solc",
    "version": "0.4.24+commit.e67f0147.Emscripten.clang"
  },
  "schemaVersion": "2.0.0",
  "updatedAt": "2018-06-12T17:21:07.832Z"
}